:1000000000800020BD010000A9040000650400007C
:10001000650400006504000065040000650400003C
:10002000650400006504000065040000A9040000E8
:10003000A904000065040000A9040000A904000050
:10004000A9040000A9040000A9040000A9040000FC
:10005000A9040000A9040000A9040000A9040000EC
:10006000A9040000A9040000A9040000A9040000DC
:10007000A9040000A9040000A9040000A9040000CC
:10008000A9040000A9040000A9040000A9040000BC
:10009000A9040000A9040000A9040000A9040000AC
:1000A000A9040000A9040000A9040000A90400009C
:1000B000A9040000A9040000A9040000A90400008C
:1000C000A9040000A9040000A9040000A90400007C
:1000D000A9040000A9040000A9040000A90400006C
:1000E000A9040000A9040000A9040000A90400005C
:1000F000A9040000A9040000A9040000A90400004C
:10010000A9040000A9040000A9040000A90400003B
:10011000A9040000A9040000A9040000A90400002B
:10012000A9040000A9040000A9040000A90400001B
:10013000A9040000A9040000A9040000A90400000B
:10014000A9040000A9040000A9040000A9040000FB
:10015000A9040000A9040000A9040000A9040000EB
:10016000A9040000850B0000A9040000A9040000F8
:10017000A9040000A9040000A9040000A9040000CB
:10018000A9040000A9040000A9040000A9040000BB
:10019000A9040000A9040000A9040000A9040000AB
:1001A000A9040000A9040000A9040000A90400009B
:1001B000A9040000A9040000A9040000514B4CF25E
:1001C000205210B51A804DF628121A8000BF00BFC9
:1001D000102223F80E2CA3F51F43DE3B4FF01062D4
:1001E0001A60494C494A9A60494B2360494B1A6846
:1001F00012F4807204D148490A604FF4A8521A6080
:10020000464B1A78110703D51A7842F008021A7083
:10021000434B2A221A700023424A434998188842C5
:1002200004D24249595899500433F5E7404A414BAA
:100230009A424FF0000302D242F8043BF7E73E49EE
:100240003E4A595899500433B3F5DE7FF7D13C4B01
:10025000802103F8011B3B498B42F9D13A4B1A60CC
:100260003A4B0A221A70A3F5805324225A70A02216
:100270001A709A799207FCD59A79D006FCD4344B3F
:100280009A7902F00C02082AF9D105221A71432248
:100290005A719A799106FCD52D4B9A795206FBD565
:1002A0002C4A4FF0817111600521516020221A7093
:1002B000274B9B7903F00C030C2BF9D1264B274AD3
:1002C0001A6062B600F0AAFA236843F400032360C0
:1002D000234B00221A60234AC3F8302103F59C7394
:1002E0001A6842F001021A601F4A11681F4A9142BF
:1002F000FAD81A6822F001021A6001F0E3FA01F05C
:100300002BFAFEE70E2005403C800440823F0400AB
:100310000100002B10D0034014D0034002D007404E
:1003200000E007406087FF1F808CFF1FCC1C00008F
:10033000808CFF1FF08DFF1F000000000082FF1F58
:1003400000E400E05FE400E008ED00E0005006405B
:10035000004006404480044004800440C010050072
:100360000070034080A8120134710340405489009A
:10037000FFFFFFFFFFFFFFFFFFFFFFFFFFFFFFFF8D
:10038000FFFFFFFFFFFFFFFFFFFFFFFFFFFFFFFF7D
:10039000FFFFFFFFFFFFFFFFFFFFFFFFFFFFFFFF6D
:1003A000FFFFFFFFFFFFFFFFFFFFFFFFFFFFFFFF5D
:1003B000FFFFFFFFFFFFFFFFFFFFFFFFFFFFFFFF4D
:1003C000FFFFFFFFFFFFFFFFFFFFFFFFFFFFFFFF3D
:1003D000FFFFFFFFFFFFFFFFFFFFFFFFFFFFFFFF2D
:1003E000FFFFFFFFFFFFFFFFFFFFFFFFFFFFFFFF1D
:1003F000FFFFFFFFFFFFFFFFFFFFFFFFFFFFFFFF0D
:10040000FFFFFFFFFFFFFFFFFFFFFFFFFEFFFFFFFD
:1004100010B5054C237833B9044B13B10448AFF33E
:1004200000800123237010BD808CFF1F000000009E
:10043000CC1C000008B5064B1BB106480649AFF3BB
:1004400000800648036813B1054B03B1984708BD07
:1004500000000000CC1C0000848CFF1F808CFF1F5C
:10046000000000000A4B0B4A1A609A6822F0010251
:100470009A609A6842F001029A60074B1A68074B2B
:100480009A4294BF064A074A20231360F5E700BF4B
:100490003071034000DD6D00347103403F771B0075
:1004A00084F00F4088F00F4008B5FFF7DBFF034AE8
:1004B0001368184410601846704700BF6087FF1F1C
:1004C000002070474FF0FF3070474FF400534B60EF
:1004D00000207047012070474FF0FF307047FEE763
:1004E000FEE70078D0F1010038BF002070470123FB
:1004F00003707047EFF313839BB9EFF3108098B943
:10050000EFF3058323B10F2B04D9084A985C01E06F
:100510004FF48070EFF311833BB1834238BF18462C
:1005200070474FF0FF30704718467047F0E300E027
:1005300070B50C4B0C4C1A7842F0020504EBC50662
:1005400082F00102706058781A7000280CBF88266B
:10055000C82680F0010046EA0141587044F8351081
:1005600070BD00BF9C8CFF1F0080FF1F10B50023D3
:10057000B0FBF2F402FB1400092894BF303037308E
:10058000C0B2C85420460CB10133F1E7CA18547008
:1005900022469A4206DA885CCC5C8C54C8540132FC
:1005A000013BF6E7084610BD1FB572B6154B702229
:1005B0001A70154A412111700F2102F8011C802286
:1005C0001A701A781206FCD5104B186862B6104BD8
:1005D000984298BF0A2301AC98BF584321460A228B
:1005E000FFF7C4FF0023E15C0A4A29B102EB430094
:1005F00001330A2B4180F6D101335B00137004B044
:1006000010BD00BF00000240070002400800024089
:100610007F9698006487FF1F72B60C4A9169B1FA01
:1006200081F30B2B02D962B6002070474FF00040D7
:10063000D84021EA0001916162B60549482253433E
:10064000C8180022CA504260704700BF6487FF1F6D
:100650000084FF1F431E032B10B510D872B6094A41
:1006600002EB8302506840B141685160064A01883C
:1006700032F81340611A22F8131062B610BD002040
:1006800010BD00BF9C8CFF1FD08DFF1F01380328B9
:100690000CD8074B03EB8000436972B600201BB1F6
:1006A0001A885B681044FAE762B67047002070470A
:1006B0009C8CFF1F013803280BD872B6064B03EB46
:1006C00080004369002013B101305B68FBE762B62C
:1006D00070470020704700BF9C8CFF1F10B572B69A
:1006E0000123184A1A4412F8012C12071ED599004A
:1006F000154A52F831402CB902EB431308305860C8
:10070000124B09E041F0010152F8314074B902EB9B
:10071000C103083058600E4B42F831300D4B93F84E
:100720002420013A83F8242062B610BD0133052B42
:10073000D7D162B6074B002283F82420BDE81040D1
:1007400000F00AB8401B00000080FF1F8800400036
:10075000C80040009C8CFF1F0D4B4822C31AB3FBFE
:10076000F2F30B2B12D80B4A92F8241021B192F815
:1007700025200AB1FFF7B2BF72B6074A4FF0004119
:1007800021FA03F391691943916162B6704700BF82
:100790000084FF1F9C8CFF1F6487FF1F421E032ADB
:1007A00030B533D81A4B400140F01000184472B6EF
:1007B000184CA31893F82630032B09D8DFE803F070
:1007C000130215050830022310E0083004230DE061
:1007D0009200A318586908B9596101E0DB6A5960B1
:1007E0002244D16211E0032300E00523224410F0EB
:1007F000080F82F8263001F108030A8843600CBF15
:100800008823C82343EA0243036062B630BD00BFB9
:100810000080FF1F9C8CFF1F00BE704708B5FFF7CC
:10082000C3FE00221A4B0021D15098180832882AA2
:100830004160F7D1174A106840F48020106002F53B
:1008400028326832C3F307201070C3F307401B0E31
:1008500010751376FF2302F81C3C02F8143C02F8D2
:100860008C3C012302F8083C82F8641002F8183C22
:10087000094B70226FF450711A700B444FF40072E0
:100880001A6003F1C04303F5C82310221A7008BD93
:100890000080FF1F3480044049E400E010B5104C94
:1008A000E36B6BB1E06B4288531C0244147A0288FC
:1008B000934212D3FFF750FF094B0022DA630DE099
:1008C00094F8253013B94FF0FF3010BD0320FFF727
:1008D000C1FEE0630028E5D1F5E74380204610BD66
:1008E0009C8CFF1F10B50B4CE36B13B1E36B6BB922
:1008F00002E094F8253013B94FF0FF3010BD03200B
:10090000FFF7A8FEE0630028F0D1F5E75A8813440A
:10091000187A10BD9C8CFF1F044B9888044BDB6B2E
:100920001BB11A885B88D31A18447047D08DFF1FFB
:100930009C8CFF1F2DE9F04180460E460027002EBB
:100940002ED0194C94F8253025464BB3E36B4BB9A8
:100950000320FFF77FFEE86310B3038813B9FFF7A6
:10096000FBFEF5E7E46B618825886D1AAE4238BF5F
:100970003546083140462A46214400F0CBFF6388C3
:10098000A8442F44761B1D442388ADB2AB4265803A
:10099000D5D82046FFF7E0FE034B0022DA63CEE70E
:1009A0003846BDE8F08100BF9C8CFF1F10B5094C94
:1009B00094F8253063B1E06B18B1FFF7CDFE00234A
:1009C000E3630320FFF746FE10B1FFF7C5FEF8E72B
:1009D00010BD00BF9C8CFF1F2DE9F0412D4C012361
:1009E00007460D4684F84030002D4DD0636C33BB74
:1009F00048F6014894F82530264E03F0FF0213B95B
:100A000086F8402017E00420FFF754FE072808D896
:100A1000012386F84030FFF7FFFD706478B986F84F
:100A20004000B8F1010803D094F84830002BE1D021
:100A3000012384F848304FF0FF30BDE8F081616C4D
:100A40004888C0F14002954238BF2A4600F10806A6
:100A50000023104484F848300E444880AD1A934275
:100A600003D0F85CF0540133F9E71F444B883F2B67
:100A700006D940230B800420FFF790FE0023636417
:100A8000052384F84930AFE784F840502846BDE894
:100A9000F08100BF9C8CFF1F07B502AB012103F85A
:100AA000010D1846FFF798FF03B05DF804FB10B581
:100AB0000F4C012384F84030636C83B994F82530DF
:100AC0001BB9002084F8400010BD0420FFF7F2FDA0
:100AD0000728F6D8FFF7A0FD60640028F1D0636C0A
:100AE0005888002384F84030C0F1400010BD00BF9A
:100AF0009C8CFF1F70B5124C94F82530F3B1656CD7
:100B0000012684F8406055B100266B8884F849605E
:100B100004202B802946FFF741FE66640BE0FFF7B7
:100B20007BFD014628B1042084F84950FFF736FECA
:100B300001E084F84960002384F8403070BD00BFB4
:100B40009C8CFF1F38B50E4C94F8403003F0FF0525
:100B5000A3B9616C31B14B880B800420FFF71EFEF6
:100B6000656438BDFFF758FD014620B10420BDE89B
:100B70003840FFF713BE012384F8493038BD00BF69
:100B80009C8CFF1F2DE9F84FB04F3C78E4B214F075
:100B9000040F3D461DD0AE4B93F82520BAB193F813
:100BA000521001F0FF0229B1013AD2B283F852206B
:100BB00002B900BE93F8492002F0FF033AB1013BAD
:100BC000A34ADBB282F849300BB9FFF7BBFF04231D
:100BD0003B7004F0080303F0FF02002B00F0778263
:100BE0009C4B9D4D1A78D2B214094FEA920840F0FE
:100BF000E18105EBC803596855F83830C3F3830326
:100C0000013B0C2B00F2D281DFE813F08E018E0144
:100C1000D001D001D001D001D001D001AB01D00171
:100C2000D001D0010D000A68894C4B686265A3654C
:100C300092B28A4B45F8383040F28160002301219E
:100C40008242E3652B61AB616170A04617D8B2F5B3
:100C5000D06F80F01581B2F5817F00F0D38006D887
:100C6000802A00F0BA80822A00F0BC8027E140F29E
:100C700002339A4200F0D780B2F5A06F1DE042F235
:100C80002100824200F04D810FD8B2F5086F00F0CC
:100C90009E80B2F5106F40F012816F4E94F856307E
:100CA00084F8253006F180090AE042F221218A42C7
:100CB00000F0008142F221339A4200F00481FEE00C
:100CC000336A1B0603D5706A0838FFF745FD0836FE
:100CD0004E45F5D10026B146DFF8A0A156F80A002E
:100CE00028B1D0F804B0FFF737FD5846F8E75C4B61
:100CF0004AF80600A3F14C0AF05056F80A0028B151
:100D0000D0F804B0FFF728FD5846F8E7554B564A8F
:100D1000F050063B22F8190019F803204AF80600A3
:100D2000023A032A08D8DFE802F002040204002293
:100D300000E0012203F8092009F10109B9F1040FCB
:100D400006F10406C8D1002384F824300126474A5E
:100D5000474B3244334412F8012C9B0012F0080F29
:100D60001A704FEA860925D0FFF756FC38B105EB1B
:100D70004613083058603F4B45F8393006E098F884
:100D8000243045F83900013388F82430FFF744FC5B
:100D900049F0010338B105EBC302083050602F4A17
:100DA00045F8332006E045F8330098F82430013345
:100DB00088F8243049F00202013649F00309002383
:100DC000052E45F8323045F83930C0D17CE094F832
:100DD000253084F84A300B4679E084F84A3084F8AC
:100DE0004B3073E0B4F85820042A68D884F84A30AD
:100DF00084F84B309200204B9B5C9D0766D584F8AD
:100E00004A1063E0B4F8582002F07F02042A56DC4E
:100E1000B4F85630002B52D19100174A0A44117889
:100E200021F002010FE0B4F8582002F07F02042AFA
:100E300045DCB4F85630002B41D191000E4A0A44EB
:100E4000117841F0020111703EE000BF80200740A0
:100E50009C8CFF1F902007400080FF1FC8004000AF
:100E6000FC8CFF1FC88CFF1FD08DFF1F401B000094
:100E700030C8011088004000C0200740A08CFF1F30
:100E8000B4F85620B4F85810AD4B53F8085CA3F1F1
:100E90000C00A5B133F80C6C964209D133F80A6CFA
:100EA0008E4205D1120A032A0CBF2B78038910E069
:100EB0000C33EAE794F8562084F8702004E0A14B44
:100EC0000F221A702DE000231D4602E0022308F1D4
:100ED0004A05B4F85A80434538BF9846B8F1400FE8
:100EE00034BF4646402628463146FFF721FBB8EB83
:100EF0000608354403D1402E13D1464604E0B8F12C
:100F0000400F34BF4646402628463146FFF710FBC7
:100F1000B8EB0608354401D1402E02D1E565A4F8AE
:100F200072800122884B40E0884AB2F8540042F2B5
:100F30002103984211D100238548CC5C1C54013315
:100F4000072BF9D103680020862B08BF0F23014629
:100F500008BF82F85230FFF7EBFA7E4B45F8383085
:100F600024E07A4CE66DA6B1B4F87280B8F1400F77
:100F700034BF4546402530462946FFF7D9FAC5EB30
:100F800008039BB2A4F872300BB9402D00D173193D
:100F9000E365B4F854206D4BB2F5A06F06D1002282
:100FA00083F8552093F856206B4B1A70664B01223C
:100FB0001A7089E005EBC806013C736802F008026C
:100FC000A3F10800E4B202F0FF01002A45D0FFF7C8
:100FD000C3FB5E4B03EB840C1819DCF814201AB326
:100FE0005168CCF8141002F10801716090F82610D5
:100FF000032910D8DFE801F00205080B1C44032385
:1010000007E01C44022304E01C44052301E01C44C7
:10101000042384F8263016F0080F12880CBF8823AA
:10102000C82343EA02434DE090F82620032A0BD858
:10103000DFE802F04A4A02051C44002301E01C4498
:10104000012384F826303FE016F0080F1C440CBF43
:101050000222032284F8262036E055F83820120CAC
:1010600023F8082C42B3DFF8E4C023F8061C4FEA4B
:10107000840E43F8041C0CEB0E014B680BB948605E
:1010800001E00B6E58600CEB0E03DFF8C0901866A1
:10109000324B33F814100A4423F81420FFF7BCFA3B
:1010A00010B10830706007E099F8243045F8380036
:1010B000013389F8243007E0264B294A16F0080F3F
:1010C00008BF134645F8383008233B705CE5E0075D
:1010D00020D51E4C1C48224E21460223037001F8E5
:1010E000742B204BB4341E6059601A619A619E6063
:1010F000DC60144B0D2119701B49FF230B702B7002
:101100000A741A4A13701A4B9F221A700123037033
:10111000BDE8F88F210604D50A4B0D221A708023F2
:101120002B70A20705D5104B1A78D2B21A70022381
:101130002B70E30644BF10232B70BDE8F88F00BF6F
:10114000501B0000C0200740942007409C8CFF1FCC
:10115000D88DFF1FC800400098200740D08DFF1F8A
:10116000880040000080FF1F882007408C20074037
:101170008420074010B5441E14F8010F10B1FFF78A
:101180008BFCF9E710BD7FB5C60F4FF0000318BF09
:1011900040428DF80F300B220A2590FBF5F1531ECB
:1011A00001AC05FB110030301855081E03DD012B82
:1011B00001D01A46F0E72EB1931E04AA1A442D213D
:1011C00002F80C1CE018FFF7D5FF04B070BD10B595
:1011D00004460648FFF7CEFF054B53F82400FFF7FF
:1011E000C9FF0448BDE81040FFF7C4BF0A1C000057
:1011F0000888FF1F0F1C000070472DE9F0479E4D27
:101200009E4CB5F928309E4A013316D19D499E4E19
:10121000002323600B603360A373E3802381638129
:10122000A38119232361136803F0800301209BB27B
:10123000A080A3829BB9086011E01368A28A03F022
:1012400080039BB211B28B42A38508D032B18D4A84
:10125000116841F00101116000226281A382A27B2A
:10126000864B52B11A69002A07DC864908680022B9
:1012700040F002009A7308605A8100232360A38122
:101280000123E382B5F92830002B00F0AB807F4AC0
:10129000B4F904107E4FB4F81A80B4F81CC037F8C3
:1012A000110003231360236A114606B207EB4606BA
:1012B0000230368A80B216B3013E764B36B24FF01A
:1012C0002008334096FBF8F8002B1FFA88F803DA61
:1012D000013B63F01F0301330FFA88F91FFA83FC07
:1012E0000FFA8CF3012606FA03F351F829601E4326
:1012F00041F829601FFA88F81FFA8CFCD5E71068BE
:10130000C0F3080A21201060E08806B207EB460609
:101310000230768F80B216B3013E5E4B36B24FF08C
:101320002008334096FBF8F8002B1FFA88F803DA00
:10133000013B63F01F0301330FFA88F91FFA83FCA6
:101340000FFA8CF3012606FA03F351F829601E43C5
:1013500041F829601FFA88F81FFA8CFCD5E710685D
:1013600026890AEA000AFA2010601FFA86F90FFAA5
:1013700089F007EB40000236B0F85A00B6B210B35D
:101380000138444B00B24FF02008034090FBF8F8BE
:10139000002B1FFA88F803DA013B63F01F030133C7
:1013A0000FFA88F91FFA83FC0FFA8CF3012000FA78
:1013B00003F351F82900184341F829001FFA88F86F
:1013C0001FFA8CFCD1E7126823622F4BA4F8189007
:1013D0000AEA0202A084A4F81A80A4F81CC01A60C9
:1013E00028856081B4F90A30244A002B5FD1254951
:1013F000254B08681B6840F4FE763340264E336068
:10140000F3B113F0FF0F1AD01F070BD09E0704D0C3
:10141000DB074CBF0123022312E05F074CBF03230D
:1014200004230DE013F0300F04D0DE064CBF05237B
:10143000062305E05B064CBF0723082300E00923D1
:10144000538162890D4B16B2002E27DD013A92B20C
:1014500042F34A10012602F01F0280B29A8306FA74
:1014600002F258831A6203B251F8230020EA020202
:1014700041F823201BE000BF0888FF1F908DFF1F4D
:1014800090F00F40EC8DFF1FE08DFF1FE88DFF1FD8
:10149000981B00001F000080E48DFF1F3AB998627E
:1014A00018B11A6842F002021A6000230B606389C7
:1014B000002B00F0AA80564AB2F9162018B212B9D1
:1014C000022800F3A2800022E28262812268514F4A
:1014D0002B8542F001022260B4F9042037F8122073
:1014E00091B20EB207EB4606368A0FFA86FE8645A3
:1014F00004D0023292B2002EF2D109E0002807DDBA
:10150000444A013109B202EB4101414A098A918002
:10151000E28891B20EB207EB4606768F0FFA86FE8E
:10152000864504D0023292B2002EF2D109E00028A2
:1015300007DD384A013109B202EB4101344A498FD3
:10154000D1802689B2B211B207EB4101B1F85A102D
:101550000FFA81FE864506D00236B6B20029F1D1D7
:101560002283A1840EE0002829492283A38409DD77
:10157000013292B2274E0A8312B206EB4202B2F84F
:101580005A200A81A381FFF722FE298D204E0BB23B
:10159000002B7FF777AE033989B2062909D80122DB
:1015A00002FA01F111F0770F06D019213161B273FF
:1015B00002E0022B7FF766AE033B062B3FF662AEDE
:1015C00001A252F823F000BFE5150000EB15000062
:1015D000F115000085120000F7150000FD15000050
:1015E0000316000001220C4B0DE002220B4B0AE017
:1015F00001220B4B07E001220A4B04E002220A4BB6
:1016000001E00A4B01221A603CE6BDE8F08700BF0A
:10161000908DFF1F981B000044F00F40C4F00F4056
:1016200084F00F4048F00F40C8F00F4088F00F40A2
:10163000034B9A7B12B11A69121A1A61704700BFE4
:10164000908DFF1F114A4FF4A273136002F53522EB
:101650005432116841F0010111600D4A136002F526
:1016600034229432116841F001011160A2F5332255
:10167000903A1360074B1A6842F002021A60A3F511
:101680003423B83B40F213121A60704700A00440A4
:1016900000B00440D4F00F40084B4FF480721A6041
:1016A00003F5342380331A6842F020021A60A3F550
:1016B00034237C3B40F213121A60704714B004408C
:1016C000084B1A6842F400021A60074B00221A60A5
:1016D000064AC3F83021D3F8382142F00102C3F89A
:1016E000382170473C800440007003400054EA2ACF
:1016F000064B074A1B68106B984202D20549014409
:101700001163106B1363C01A704700BF347103403C
:10171000908DFF1F0054EA2A0B4B0C4A1868516B3E
:10172000814202D20A4B0B445363526B094B101A8D
:10173000984207D90133B0FBF3F0044903FB1023AF
:101740004B6370470020704734710340908DFF1F3A
:101750000054EA2A3F7E05002DE9F041FFF79CFF87
:10176000FFF7AEFFFFF76EFF4FF0FF363546002460
:10177000FFF7BEFFB04200D306B90646A84202D921
:101780006A1C18BF0546FFF7C7FF26EAE67625EA7A
:10179000E575804648B1FFF74BFF3C4B44449C4203
:1017A00084BFA4F50304A4F556446423B4FBF3F208
:1017B00003FB1243042B94BF354A364A364F20238D
:1017C0001360FFF71AFDB7F90C30002B0DDD33481D
:1017D000FFF7D0FCB7F90420314B03EB8203D86A42
:1017E000FFF7C8FC2F48FFF7C5FC2F4B1B685B06B3
:1017F00002D50023BB6305E0BB6B002B02DB264A4E
:1018000043449363BB6B022B39DC0023FA6B944295
:1018100004D3214B02F57A72DA630123FA6B04F5E3
:101820007A71914205D2A2F503021B49A2F55642F4
:10183000CA63002B9CD01D48FFF79CFC0A20604324
:10184000FFF7A1FC1A48FFF795FC8DB11948242732
:10185000FFF790FC96FBF7F0FFF795FC1648FFF7B3
:1018600089FC95FBF7F0FFF78EFC1448FFF782FC2C
:1018700013484FF0FF36FFF77DFC354678E7064BFF
:101880004FF0FF329A630123C0E700BFFFD583000A
:1018900084F00F4088F00F40908DFF1F131C000054
:1018A0000888FF1F0F1C000090F00F40181C00005C
:1018B0002C1C0000311C00003E1C0000401C0000DD
:1018C000101C000070B50F4E0F4D761BB61007D0E0
:1018D000043D0024013455F8043F9847A642F9D14D
:1018E0000A4E0B4D761B00F0E5F9B61008D0043D0A
:1018F0000024013455F8043F9847A642F9D170BD41
:1019000070BD00BFC01C0000C01C0000C81C00004F
:10191000C01C0000844641EA000313F003036DD1AC
:10192000403A41D351F8043B40F8043B51F8043BA2
:1019300040F8043B51F8043B40F8043B51F8043BA9
:1019400040F8043B51F8043B40F8043B51F8043B99
:1019500040F8043B51F8043B40F8043B51F8043B89
:1019600040F8043B51F8043B40F8043B51F8043B79
:1019700040F8043B51F8043B40F8043B51F8043B69
:1019800040F8043B51F8043B40F8043B51F8043B59
:1019900040F8043B51F8043B40F8043B51F8043B49
:1019A00040F8043B403ABDD2303211D351F8043BE9
:1019B00040F8043B51F8043B40F8043B51F8043B29
:1019C00040F8043B51F8043B40F8043B103AEDD298
:1019D0000C3205D351F8043B40F8043B043AF9D2E9
:1019E000043208D0D2071CBF11F8013B00F8013BBC
:1019F00001D30B8803806046704700BF082A13D3C9
:101A00008B078DD010F003038AD0C3F10403D21AE0
:101A1000DB071CBF11F8013B00F8013B80D331F814
:101A2000023B20F8023B7BE7043AD9D3013A11F894
:101A3000013B00F8013BF9D20B7803704B784370FF
:101A40008B78837060467047024B13B1024800F0F8
:101A500005B8704700000000691A00000146002028
:101A60000246034600F018B838B5094D094C641B0E
:101A7000A41018BF05EB840505D0013C55F8043DC2
:101A80009847002CF9D1BDE8384000F01DB900BFDF
:101A90000000000000000000F0B5274C2668D6F8D2
:101AA000484185B00746002C41D065681F2D1EDDDA
:101AB000224818B94FF0FF3005B0F0BD4FF4C870A0
:101AC000039102920193AFF300800399029A019B64
:101AD00004460028EED0D6F848512560002060600A
:101AE0000546C6F84841C4F88801C4F88C013FB9DE
:101AF000AB1C00200135656044F8231005B0F0BD33
:101B000004EB85004FF0010CC0F88820D4F8886100
:101B10000CFA05F21643022FC4F88861C0F80831A8
:101B2000E6D1D4F88C311A43C4F88C21E0E706F5ED
:101B3000A674C6F84841B8E7B01C000000000000D9
:101B40000015191500010000F587FF1F12000000A5
:101B500000020000B287FF1F4300000000030000E6
:101B6000AE87FF1F00000000010309049687FF1FD6
:101B700000000000020309048087FF1F000000002E
:101B8000030309046487FF1F000000000000000039
:101B9000000000000000000000000000030006003C
:101BA00009000C000F0012000300020000000400F6
:101BB000030000000500040000000600070000000C
:101BC00008000600000009000100000007000500F1
:101BD000000003000D0004000D0005000D000700CB
:101BE0000D0008000D0009000D00000002000000BB
:101BF00000000900000001000500000003000500CE
:101C0000090000000100050000006576205B005D12
:101C10000D0A007374205B006D6F6E69746F723A09
:101C200020202073797374696D653D005B6D735D71
:101C30000020206379636C6574696D653D002F0039
:101C40005B6D696E2F6D61782075736563735D00E0
:101C500049646C6500734100734142007341424323
:101C600000644142002337005075736842757474F4
:101C70006F6E005469636B004F6E4C656441004F9A
:101C80006E4C656442004F6E4C656443004265656E
:101C900070004F66664C656441004F66664C656433
:101CA00042004F66664C65644300FFFF430000003E
:101CB0005888FF1FF8B500BFF8BC08BC9E467047A7
:081CC000491A00003504000080
:041CC800F8B500BFAC
:101CCC00F08DFF1F0C03000000000000000000005E
:101CDC00000000000000000000000000FFFFFFFFFC
:101CEC00160355005300420020005300650072009B
:101CFC00690061006C0018035400650065006E00FB
:101D0C00730079006400750069006E006F000403B5
:101D1C00090409024300020100C032090400000159
:101D2C000202010005240010010524010101042414
:101D3C000206052406000107058203100040090471
:101D4C000100020A0000000705030240000007051D
:101D5C0084024000001201000202000040C0168301
:101D6C000400010102030100121C0000681C0000A9
:101D7C00731C0000781C00007F1C0000861C0000F7
:101D8C008D1C0000921C00009A1C0000A21C00007C
:101D9C00FFFF0000121C0000501C0000551C00002E
:101DAC00581C00005C1C0000611C0000971C00000B
:101DBC00651C00000000000000000000448BFF1FA9
:101DCC00AC8BFF1F148CFF1F0000000000000000F4
:101DDC0000000000000000000000000000000000F7
:101DEC00000000000000000000000000AC1C00001F
:101DFC0000000000000000000000000000000000D7
:101E0C0000000000000000000000000000000000C6
:101E1C0000000000000000000000000000000000B6
:101E2C0000000000000000000000000000000000A6
:101E3C000000000000000000000000000000000096
:101E4C000000000000000000000000000000000086
:101E5C000000000000000000000000000000000076
:101E6C0001000000000000000E33CDAB34126DE613
:101E7C00ECDE05000B00000000000000000000007C
:101E8C000000000000000000000000000000000046
:101E9C000000000000000000000000000000000036
:101EAC000000000000000000000000000000000026
:101EBC000000000000000000000000000000000016
:00000001FF
